:100000000C943E000C945B000C945B000C945B0021
:100010000C944E050C945B000C945B000C946905E9
:100020000C945B000C940E050C945B000C945B002C
:100030000C945B000C945B000C945B000C945B00D4
:100040000C948E050C945B000C945B000C945B008C
:100050000C945B000C945B000C945B000C945B00B4
:100060000C945B000C945B000C945B000C945B00A4
:100070000C945B000C945B000C945B0011241FBE7D
:10008000CFEFD4E0DEBFCDBF11E0A0E0B1E0E4EB04
:10009000F1E102C005900D92AE34B107D9F711E03D
:1000A000AEE4B1E001C01D92A938B107E1F70E94AA
:1000B00093060C94D8080C94000080917A00806418
:1000C00080937A0080917A0086FDFCCF01992BC045
:1000D0008091780090917900880F991F8F5F9340ED
:1000E000909352018093510197FD26C08091510158
:1000F000909152012091530130915401820F931F2E
:100100009695879590935201809351019093540155
:1001100080935301880F892F881F990B90935F015B
:1001200080935E010895809178009091790090937A
:10013000520180935101DACF81E090E09093520117
:1001400080935101D3CF1092780110925A01ECE6BE
:10015000F1E081E0819391E0E437F907D9F710925B
:100160006301089558981092B20082E08093700065
:100170001092690181E0809365010895282F2295EE
:10018000207F982F84FD286095FD246096FD2260D5
:1001900087FD216020936801089580E480937C00AE
:1001A00087E880937A0080E880936B0082E08093F8
:1001B000730080E58CBD81E08DBD89E0809368008F
:1001C0000895F999FECF92BD81BDF89A80B5089542
:1001D000F999FECF92BD81BD60BDFA9AF99A089552
:1001E00011B882E082B980EB84B987E187B980E8F1
:1001F00088B981E08AB9089592E094BD84E085BD14
:100200002DE427BD90936E009093B00086E080931C
:10021000B1002093B300089510926B0081E08093A9
:100220007E00089510927E0080E880936B00089510
:10023000F8942C98809168018EBD0DB407FEFDCF17
:10024000809155018EBD0DB407FEFDCF80917401E4
:100250008EBD0DB407FEFDCF80915D018EBD0DB446
:1002600007FEFDCF8EB52C9A7894089520917401E5
:1002700090915D01309155013672309355012C7487
:1002800020937401947290935D0180916A01833090
:10029000D9F1843070F0853041F18530A0F086309E
:1002A000F1F0873019F4306C309355010E94180139
:1002B0000895813019F1823060F0906C90935D0167
:1002C0000E94180108952063209374010E94180170
:1002D0000895936090935D010E941801089538611C
:1002E000309355010E9418010895316030935501F3
:1002F0002068209374010E941801089598619093DA
:100300005D010E94180108952360209374010E94EA
:10031000180108950E94A3000E94360110925C010A
:1003200080916A01823021F1833038F08530E1F02C
:10033000863091F08430A1F00895882331F4109232
:100340007E0080E880936B0008958130A9F71092B9
:100350006B0080937E00089583E08093560108959A
:1003600081E080935601089582E0809356010895BC
:1003700010927E0080E880936B001092560181E01D
:100380008093600108951F9310917501113039F029
:1003900081E0809375010E9436011F9108950E94AB
:1003A000A30080916A018F5F80936A0180916A0146
:1003B000877080936A010E94360110925C018091DF
:1003C0006A018230D1F0833048F0853021F18630E7
:1003D000F1F0843011F710935601DFCF882331F408
:1003E00010927E0080E880936B00D7CF8130A9F611
:1003F00010926B0080937E00D0CF10927E0080E838
:1004000080936B001092560110936001C6CF83E079
:1004100080935601C2CF82E080935601BECF982FC1
:1004200080917501882329F52091740130915D0137
:10043000409155014672409355012C7420937401EC
:10044000347230935D0180916B01882399F493306D
:1004500059F0943038F5913009F458C09230D0F109
:10046000306830935D0103C02260209374010E94C4
:1004700018010895933011F1943040F49130E1F176
:10048000923020F1306430935D01F1CF953071F1FD
:100490009530C0F09630F1F1973049F740644093C1
:1004A0005501E5CF953061F19530C0F09630D1F02F
:1004B0009730E9F6406840935501D9CF21602093E9
:1004C0007401D5CF206120937401D1CF3160309376
:1004D0005D01CDCF326030935D01C9CF20622093A2
:1004E0007401C5CF406140935501C1CF4093550180
:1004F000206820937401BBCF386030935D01B7CF83
:1005000020937401416040935501B1CF3061309325
:100510005D01ADCF486040935501A9CF582F809120
:100520007501882309F050C080916B01882309F080
:100530004CC0409155014E76409355013091740165
:100540003D7D3093740190915D01892F8D7680936C
:100550005D01252F50FF04C09C76926090935D0151
:1005600021FF06C080915D01877E806180935D01DF
:1005700022FF06C080915D018F73806880935D01CA
:1005800023FF04C03C7F32603093740124FF06C017
:10059000809174018F7C80628093740125FF08C074
:1005A000809174018F77809374014160409355016D
:1005B00026FF06C080915501877E8061809355019A
:1005C00057FD53C00E941801089540915501477B83
:1005D00040935501309174013E76309374019091AF
:1005E0005D01892F867B80935D01252F50FF04C01C
:1005F000947B916090935D0121FF06C080915D0125
:10060000877E886080935D0122FF06C080915D0136
:100610008F73806480935D0123FF04C03C7F316051
:100620003093740124FF06C0809174018F7C806137
:100630008093740125FF08C04E7F4093550180913F
:10064000740180688093740126FF06C08091550173
:10065000877E88608093550157FFB4CF8091550104
:100660008F73806480935501ADCF809155018F7356
:10067000806880935501A6CF482F30915501397D70
:100680003093550120917401237B20937401809154
:100690005D018B7D80935D01942F40FF03C08460DA
:1006A00080935D0191FF05C080915D018062809320
:1006B0005D0192FF03C024602093740193FF05C085
:1006C0008091740188608093740194FF05C08091CB
:1006D000740180648093740195FF03C0326030938D
:1006E000550196FF05C080915501846080935501A6
:1006F00047FD13C080917701882351F480916A01EE
:10070000833019F0842F0E94BE000E9418010895C2
:10071000109277010E94180108958091550180621E
:1007200080935501E7CFCF93DF9380916B018130A8
:1007300009F443C08091560190E040917801ECE6C5
:10074000F1E0880F991F880F991F880F991FEC01FE
:10075000C05EDE4F9C0120503F4F60E471E090810D
:10076000915090838881891720F0DB018C918095CE
:100770004823992331F4D9018C918083DB018C913A
:10078000482B319621962F5F3F4F6F5F7F4FB1E02F
:10079000E437FB0721F740937801842F0E948E02F3
:1007A000809178010E943C03809178010E94BE00F4
:1007B0000E94B200DF91CF91089510927801BACFD4
:1007C0009091630191509093630180916B0181300E
:1007D00081F090937801892F0E948E028091780198
:1007E0000E943C03809163010E94BE000E94B200FF
:1007F000089580915001892780937801909350014A
:10080000EACF80915A018F5F877080935A01E0E4AC
:10081000F1E0E80FF11D80810E943C0380915A01B4
:100820000E940F020E94B2000895892B21F021E05E
:1008300030E0C901089586B1282F30E0207830706B
:10084000C9010895892B31F4109258011092570173
:100850000E94C301089580916A01833031F0843091
:1008600058F0853011F08530B0F4809178010E9405
:100870003C030E9418010895813091F08230A8F75E
:10088000E0915A01F0E0E05CFE4F80810E943C0361
:100890000E9418010895863041F3873051F7E5CF63
:1008A000E0916101F0916201E05CFE4F80810E9465
:1008B0003C030E94180108958091740120915D010C
:1008C000909155019672909355018C7480937401A8
:1008D000247220935D0180916A01833031F084306D
:1008E00058F0853011F0853090F4809178010E94A5
:1008F0008E020E9418010895813071F08230A8F7AD
:1009000080915A010E940F020E94180108958630BA
:1009100061F3873071F7E9CF8091610190916201B5
:100920000E940F020E9418010895F999FECF81E0FC
:1009300090E092BD81BDF89A80B580936A01F999E3
:10094000FECF82E090E092BD81BDF89A80B58093A1
:100950006B010E948A0180916A01883010F0109228
:100960006A0180916B01823010F010926B010E943D
:100970005C0408950E948E0220ED37E044EF51E0C0
:10098000CA010197F1F721503040D1F780E00E9471
:100990008E0220ED37E044EF51E0CA010197F1F7F4
:1009A00021503040D1F70895F89460916A0181E0B8
:1009B00090E00E94E80060916B0182E090E00E946C
:1009C000E800789480ED97E0909358018093570168
:1009D0008FEF0E94BA048FEF0E94BA048FEF0E943B
:1009E000BA040E945C040895892B59F48091750122
:1009F000882379F480916B01882331F481E080931E
:100A00006B010E945C04089510926B010E945C04CB
:100A100008950E94D4040E945C0408951F920F92CE
:100A20000FB60F9211242F933F934F935F936F93C1
:100A30007F938F939F93AF93BF93EF93FF93809197
:100A40006501882391F0809169018F5F809369012E
:100A5000809169018A3048F0589A10926901109289
:100A6000650180916B01813089F0FF91EF91BF9119
:100A7000AF919F918F917F916F915F914F913F9136
:100A80002F910F900FBE0F901F90189580937701B4
:100A900080E00E943C0310927000E7CF1F920F92FB
:100AA0000FB60F9211248F939F9390B180914E01B6
:100AB000892787FF05C097FD03C081E08093590116
:100AC00090934E019F918F910F900FBE0F901F90AA
:100AD00018951F920F920FB60F9211242F933F93E8
:100AE0004F938F939F9349B1242F30E08091480119
:100AF00090E08227932781FF05C041FD03C081E07C
:100B000080935B01409348019F918F914F913F915A
:100B10002F910F900FBE0F901F9018951F920F925C
:100B20000FB60F9211242F933F934F935F936F93C0
:100B30007F938F939F93AF93BF93EF93FF93809196
:100B40004F018F5F80934F01863028F580917501AA
:100B5000882381F0809157019091580101969093DC
:100B60005801809357018091570190915801805D01
:100B70009740B0F4FF91EF91BF91AF919F918F910A
:100B80007F916F915F914F913F912F910F900FBE89
:100B90000F901F90189510924F010E942A07D6CFF0
:100BA0001092580110925701109275010E945C0436
:100BB000E1CF0E9435088F5F9F430CF061C08091A8
:100BC00078018160809378010E9435088A5A9A42A0
:100BD0000CF061C0809178018260809378010E945E
:100BE00035088F5F9F410CF061C08091780184606F
:100BF000809378010E943508895999410CF061C0B1
:100C0000809178018860809378010E94350885552D
:100C100095410CF061C080917801806180937801EA
:100C20000E943508895492410CF061C0809178018E
:100C30008062809378010E9435088F5F9F400CF09E
:100C400061C0809178018064809378010E943508AA
:100C500088539E400CF461C0809178018F77809317
:100C60007801809178010E948E02809178010E9423
:100C70003C03809178010E94BE000E94B20008955A
:100C8000809178018E7F809378010E9435088A5A7E
:100C90009A420CF49FCF809178018D7F80937801E8
:100CA0000E9435088F5F9F410CF49FCF809178019F
:100CB0008B7F809378010E943508895999410CF403
:100CC0009FCF80917801877F809378010E943508BB
:100CD000855595410CF49FCF809178018F7E80934C
:100CE00078010E943508895492410CF49FCF80917D
:100CF00078018F7D809378010E9435088F5F9F4037
:100D00000CF49FCF809178018F7B809378010E94B3
:100D1000350888539E400CF09FCF80917801806801
:100D2000809378019ECFF8940E94F0000E94FC000E
:100D30000E94CD000E94950485E194E090937F018C
:100D400080937E0182E294E090937A01809379010E
:100D500084EF94E090937C0180937B0180E067EACC
:100D600070E00E94C707789480916401882301F5A0
:100D700080915B01813021F180916A01813061F1C4
:100D800080915901882381F31092590180916A0161
:100D90008330E1F1843008F03FC0813009F448C06D
:100DA0008230B8F50E94010480916401882301F328
:100DB000109264010E94C30180915B018130E1F6D1
:100DC00010925B010E94A3000E942B040E945C040D
:100DD00080916A018130A1F60E945D0020915E0140
:100DE00030915F018091610190916201281739076C
:100DF00009F4BACF80915E0190915F0190936201F6
:100E00008093610180916A01833021F60E94E003A2
:100E1000ABCF0E949303A8CF8530D9F38530C8F3B8
:100E20008630B9F3873009F09FCF0E94D9059CCF57
:100E300080916101909162010E940F02E091610135
:100E4000F0916201E05CFE4F80810E943C030E94B1
:100E5000B2008ACF80918001880F80938001E09159
:100E60007E01F0917F0180E090E00995892B29F0C7
:100E7000809180018F5F809380018091810181301A
:100E800009F442C0813028F08230D9F0833041F13A
:100E90000895809180018823D9F7E0918701F0912E
:100EA0008801309719F080E090E0099580918401E5
:100EB00090918501892B09F057C082E080938101D0
:100EC000089580918001882319F310928101E091A7
:100ED0007901F0917A01309719F080E090E009955E
:100EE000809180018823A1F2109281018091860176
:100EF000882371F2E0917901F0917A01309741F203
:100F000080E090E00995089580918001882369F040
:100F100010928101E0917901F0917A01309709F402
:100F2000B7CF80E090E0099508958091820190917B
:100F30008301019690938301809382012091840123
:100F4000309185018217930708F4A2CF83E0809344
:100F500081011092830110928201E0917B01F09156
:100F60007C013097F1F694CF81E080938101089560
:100F700010928001109281011092830110928201DF
:100F8000109285011092840110928601089590E0DC
:100F9000FC01EE0FFF1FEE0FFF1FEE0FFF1FE81B00
:100FA000F90BE058FE4F75836483089590E0FC01CF
:100FB000EE0FFF1FEE0FFF1FEE0FFF1FE81BF90BD9
:100FC000E058FE4F66830895A0E0B0E0EAEEF7E057
:100FD0000C948708EC01A880B980CA80DB80A1143A
:100FE000B104C104D10441F484E2A82E89EDB82EE5
:100FF0008BE5C82E87E0D82EC601B5012DE133EF71
:1010000041E050E00E94640827EA31E440E050E00B
:101010000E9445087B018C01C601B5012DE133EF2B
:1010200041E050E00E946408CA01B9012CEE34EF9F
:101030004FEF5FEF0E9445086E0D7F1D801F911FCF
:1010400097FF04C061507040804090486883798366
:101050008A839B839B013F77C901CDB7DEB7EAE066
:101060000C94A3080E94E407089589E491E00E948B
:10107000E4070895A0E0B0E08093490190934A010D
:10108000A0934B01B0934C010895629FD001739FD0
:10109000F001829FE00DF11D649FE00DF11D929F14
:1010A000F00D839FF00D749FF00D659FF00D992753
:1010B000729FB00DE11DF91F639FB00DE11DF91F77
:1010C000BD01CF011124089597FB092E05260ED0EE
:1010D00057FD04D04BD00AD0001C38F450954095F1
:1010E000309521953F4F4F4F5F4F0895F6F79095FC
:1010F0008095709561957F4F8F4F9F4F08952F92E8
:101100003F924F925F926F927F928F929F92AF9297
:10111000BF92CF92DF92EF92FF920F931F93CF93E4
:10112000DF93CDB7DEB7CA1BDB0B0FB6F894DEBF7B
:101130000FBECDBF09942A88398848885F846E84A1
:101140007D848C849B84AA84B984C884DF80EE80EB
:10115000FD800C811B81AA81B981CE0FD11D0FB6F4
:10116000F894DEBF0FBECDBFED010895A1E21A2EA7
:10117000AA1BBB1BFD010DC0AA1FBB1FEE1FFF1F3B
:10118000A217B307E407F50720F0A21BB30BE40B8B
:10119000F50B661F771F881F991F1A9469F76095D2
:1011A0007095809590959B01AC01BD01CF0108958C
:0411B000F894FFCFE1
:1011B4000203040506070809020406080A0C0E10B7
:1011C400030507090B0D0F11020305070B0D11137E
:1011D40001020203030404050102030405060708CF
:1011E40002030405060708090102030406070809A7
:0E11F4000102040810204080020100000000EB
:00000001FF
